:020000040800F2
:10000000301800204D02000875040008770400082D
:100010007B0400087F04000883040008000000003F
:10002000000000000000000000000000870400083D
:1000300089040008000000002911000805080008D4
:1000400067020008670200086702000867020008EC
:1000500067020008670200086702000867020008DC
:1000600067020008670200086702000867020008CC
:1000700067020008670200086702000867020008BC
:1000800067020008670200086702000867020008AC
:10009000670200086702000867020008670200089C
:1000A000670200086702000867020008670200088C
:1000B000670200086702000867020008670200087C
:1000C000670200086702000867020008670200086C
:1000D0006702000835090008670200086702000887
:1000E000670200086702000867020008670200084C
:1000F000670200086702000867020008670200083C
:10010000670200086702000867020008670200082B
:10011000670200086702000867020008670200081B
:10012000670200086702000867020008670200080B
:1001300067020008670200086702000867020008FB
:1001400067020008670200086702000867020008EB
:1001500067020008670200086702000867020008DB
:1001600067020008670200086702000867020008CB
:1001700067020008670200086702000867020008BB
:10018000670200086702000800F002F800F047F874
:100190000AA090E8000C82448344AAF10107DA45E2
:1001A00001D100F03CF8AFF2090EBAE80F0013F0ED
:1001B000010F18BFFB1A43F0010318476C4E0000F3
:1001C0008C4E0000103A24BF78C878C1FAD8520784
:1001D00024BF30C830C144BF04680C6070470000C1
:1001E0000023002400250026103A28BF78C1FBD840
:1001F000520728BF30C148BF0B607047642904F024
:10020000EF84782904F02685732904F008860020FD
:1002100070471FB504F066FE1FBD10B510BD04F099
:1002200031FE1146FFF7F5FF00F0C5F804F04FFE70
:1002300003B4FFF7F2FF03BC00F06EFB30BF72B6F1
:10024000704762B6704780F3088870470948804756
:1002500009480047FEE7FEE7FEE7FEE7FEE7FEE7A8
:10026000FEE7FEE7FEE7FEE704480549054A064BC0
:10027000704700006905000889010008301200205D
:1002800030180020301400203014002096B00025D3
:1002900001AC2BE0002000F042FA0546012D02D00F
:1002A000022D1FD11AE02146052003F02EFE18343E
:1002B000207F0090E37EA27F617F4FA004F05AFC74
:1002C00054F80C0C0090A27E636B6169183C51A03D
:1002D00004F050FC59A004F04DFC03E05AA004F0D7
:1002E00049FC00BF00BF142000F0EBFAD2E700BFCA
:1002F00017E0FF2003F020FD3F2803D1FF2003F08B
:1003000082FC0EE00020534908604FF47A7000F040
:10031000D8FA01205049C1F8A8024FF47A7000F0D1
:10032000D0FAE6E700BF16E0FF2003F005FD3F2806
:1003300003D1FF2003F067FC0DE000204549091FB1
:100340000860C82000F0BDFA01204349C1F8A402AA
:10035000C82000F0B6FAE7E770B50446002500BFF4
:10036000012003F089F93D490860012003F084F978
:100370003B49086001F0EAFB00F0AEFE05460523AC
:10038000384A0021AFF2630003F0EFFB0623364A40
:100390000021AFF2A50003F0E8FB0723334A002158
:1003A000AFF2171003F0E1FB0A2001F006F828462F
:1003B00000F096FE70BD10B54FF4A06003F0F0FEA3
:1003C000A82000F027FA4FF4E131A82000F0F1FA5C
:1003D00000F064F900F082F900F0F8F901F0B3FAE6
:1003E0000A23234A0021AFF28F0003F0BEFB01F085
:1003F00095FB002010BD000062783A2523782C621E
:10040000793A2523782C783A25642C793A25640D9D
:100410000A000000646C793A25642C7072696F3AA6
:1004200025642C7461736B6E616D653A25732C7352
:10043000746B73697A653A25640D0A0068656C6CA3
:100440006F310D0A0000000068656C6C6F320D0A98
:1004500000000000A88242420080424200000020CA
:10046000040000208003002080040020800600207B
:1004700080020020704700BFFEE700BFFEE700BF1C
:10048000FEE700BFFEE77047704700000CB5002094
:10049000019000907648006840F48030744908600C
:1004A00000BF7348006800F4003000900198401CC1
:1004B0000190009818B90198B0F5A04FF1D16C489F
:1004C000006800F4003010B10120009001E000202D
:1004D00000900098012846D165484030006840F0FF
:1004E00080506349403108606248006840F44040F1
:1004F000604908605E48083000685D49083108605E
:100500000846006840F4004008600846006840F46F
:10051000A05008605848091F0860081F006840F094
:100520008070091F086000BF5148006800F000702B
:100530000028F9D040F20570504908604C48083056
:10054000006820F003004A49083108600846006846
:1005500040F00200086000BF45480830006800F025
:100560000C000828F8D10CBD10B54548006840F4CF
:100570007000434908603E48006840F001003C4973
:10058000086000203A4908310860394800683D4950
:100590000840374908603C48091D0860081F00688A
:1005A00020F48020091F0860002031490C310860C8
:1005B000FFF76CFF4FF0006031498039086010BDD3
:1005C00070B500200022022300240221284D0835A6
:1005D0002D6805F00C0020B1042806D0082834D17D
:1005E00007E02A4D2A4E356033E02A4D284E35600B
:1005F0002FE01F4D2D1D2D68C5F380541C4D2D1D62
:100600002D6805F03F0154B1224DB5FBF1F5184EB0
:10061000361D3668C6F3881605FB06F209E01B4D49
:10062000B5FBF1F5124E361D3668C6F3881605FB8C
:1006300006F20F4D2D1D2D68C5F301456D1C6B0095
:10064000B2FBF3F5124E356003E0104D104E3560ED
:1006500000BF00BF064D08352D68C5F303150E4ECB
:10066000705D0B4D2D68C540094E356070BD0000B2
:10067000003802400070004008544007003C02402F
:1006800088ED00E0FFFFF6FE103000240024F400A7
:100690000800002000127A000C0000201CB5012187
:1006A000202004F011F94FF4C060009001208DF873
:1006B000040000208DF806008DF8070003208DF857
:1006C00005006946044803F061FE4FF4C06102482A
:1006D00003F0D8FE1CBD0000001402401CB53548D4
:1006E000006840F00100334908600846006840F0A7
:1006F00010000860012000210B460A46CDE90010D9
:100700001C212D4800F0A0FA022000210B460A46C9
:10071000CDE900100121294800F096FA1CBD10B562
:10072000044614B10120264908702548007858B3C2
:100730002448006858B12348001F006838B1214898
:100740000838006818B12048006801281CD10A2028
:1007500000F0B7F800201A4908701A48006808B974
:10076000012010BD1748001F006808B90220F8E7F3
:1007700014480838006808B90320F2E712480068F6
:10078000012815D10420ECE70E48006801280FD19C
:100790000C48001F006801280AD10A480838006880
:1007A000012805D10848006810B9012004490870E3
:1007B0000020D6E73038024000100240000002401E
:1007C0001C00002010024242000240421CB50A48B0
:1007D000006840F02000084908600220032100233F
:1007E0000122CDE90010C101044800F02DFA0020DB
:1007F000034908601CBD000030380240001402406C
:10080000A082424210B501F0B4F801F0BEF901F047
:10081000BEF810BD10B54FF0E022126922F00402BC
:100820004FF0E0231A61C31700EB5373C3F3C70300
:10083000354C2370C31700EB5373D91041F2883243
:1008400051430522314B1A804FF0E022126942F0E9
:1008500002024FF0E0231A611A465161126942F018
:1008600001021A6110BD2DE9F047064600274FF03E
:10087000E020D0F814900EB9BDE8F0872248007847
:1008800006FB00F8002701F007F94FF0E02085692A
:1008900011E04FF0E0208469AC420CD0AC4202D2AF
:1008A000281B074403E0A9EB04002844074425461D
:1008B000474500D300E0ECE700BF01F006F900BFB8
:1008C000DAE770B5044612480078012814D11148BF
:1008D000007888B90D480088844206DB0B48008800
:1008E00094FBF0F5284600F0D0FC0848008894FB03
:1008F000F0F100FB114084B24FF47A7104FB01F077
:10090000FFF7B1FF70BD00001E0000202000002096
:100910005200002046000020014600BF704700BF83
:10092000604A128802F04002002AF9D0C2B25D4B40
:100930009A80704710B501F01CF85A48008800F002
:10094000200008B357488088C4B25748008800F494
:100950000040C8B95448008800F4804060B10A2CB7
:1009600003D000205049088020E04F48008840F420
:1009700000404D49088019E00D2C06D14A480088F6
:1009800040F480404849088010E047480088C0F3A0
:100990000D0046490C5444480088401C42490880D8
:1009A00008460088C72801DD0020088000F0EFFF1E
:1009B00010BDF0B52DED028B83B005460E463C49C7
:1009C00005FB01F000EE100AF8EE400A300100EEDF
:1009D000100AB8EE400A80EE801AB0EE418ABCEEF2
:1009E000C80A10EE100A84B200EE104AB8EE400AAF
:1009F00038EE400AF3EE000A20EE200ABCEEC00AF0
:100A000010EE107A4FF6FF7000EA0414E01984B279
:100A10002848006840F00100264908602548143045
:100A2000006840F0100023491431086001200221C1
:100A300000230A46CDE900104FF4C0611E4800F0C3
:100A400003F9072209211C4800F0DEF807220A21D9
:100A5000194800F0D9F813480481808920F4004037
:100A6000104988810846808940F00800888108463E
:100A7000808940F0040088810846808940F0200089
:100A80008881022325220321084600F02FF805481B
:100A9000808940F400500349888103B0BDEC028B8B
:100AA000F0BD000000100140280000208406002056
:100AB00040420F0030380240000002404A0A520211
:100AC0000243FE4B1A6070470146072323EA0102E6
:100AD0001202FA4B1B1D18684FF6FF031840F84B23
:100AE00018431043F54B1B1D186070472DE9F0416A
:100AF0000746884614461D462846FFF7E5FFC5F120
:100B0000040007FA00F60F20284100EA0800064317
:100B100006F00F06E21704EBD2625211920002F1C6
:100B2000E022D2F800212146E31704EBD3635B11E6
:100B3000A4EB431C012303FA0CF31A432046E317EA
:100B400004EBD3635B119B0003F1E023C3F80021A6
:100B5000DC48005D40EA0610DA490855BDE8F0813E
:100B6000F0B503460846CD1701EB9575AD10A1EB26
:100B70008505AD062C0ED448006840F48040D24D67
:100B80002860CD1701EB9575AE10D04D55F8265065
:100B90000F26A640B5430846CE1701EB9676B71050
:100BA000CA4E46F82750CD1701EB9575AE10C74DCC
:100BB00055F8265003FA04F63543CE1701EB967626
:100BC000B710C24E46F82750C148006801258D4035
:100BD0002843BF4D286002F0010040B1BC480C30F2
:100BE000006801258D402843B94D0C35286002F07E
:100BF000020040B1B6480830006801258D40284306
:100C0000B34D08352860F0BD30B5CC1000F120039D
:100C100053F824304C07E50E0F24AC40A343CD100D
:100C200000F1200444F82530CC1000F1200353F8E3
:100C300024304C07E40E02FA04F42343CD1000F1F3
:100C4000200444F8253030BD2DE9F0470C46DDE99D
:100C50000867002100258C4600BF60E04FF00108C6
:100C600008FA01F504EA050CAC4557D1D0F800802C
:100C70004FEA410A4FF0030909FA0AF928EA09087C
:100C8000C0F80080D0F800804FEA410902FA09F963
:100C900048EA0908C0F80080012A01D0022A27D1B9
:100CA000D0F808804FEA410A4FF0030909FA0AF91F
:100CB00028EA0908C0F80880D0F808804FEA4109FE
:100CC00006FA09F948EA0908C0F80880D0F8049043
:100CD0004FF0010808FA01F829EA0809C0F8049061
:100CE000D0F8048003FA01F948EA0908C0F8048042
:100CF000D0F80C804FEA410A4FF0030909FA0AF9CB
:100D000028EA0908C0F80C80D0F80C804FEA4109A5
:100D100007FA09F948EA0908C0F80C80491C1029AB
:100D20009CD3BDE8F08710B564480830006840F0F7
:100D300004006249083108606348001F006840F001
:100D400080506149091F08606248406840F4807023
:100D5000604948600846006840F0040008600846A2
:100D6000006840F002000860FFF768FA10BD5448C0
:100D7000001D5249091D08607047F0B504460D4634
:100D800000210020504E443E366846F480364E4FD7
:100D9000443F3E6001E04E1CB1B24B4E443E3668CB
:100DA00006F400361EB941F6FF76B142F3DB41F698
:100DB000FF76B14201D1012063E0434E361F366811
:100DC00046F08056404F3F1F3E60424E366846F424
:100DD0004046404F3E603C4E3C3E366846F414462A
:100DE000394F3C3F3E60384E443E366826F08076B0
:100DF000354F443F3E6045EA84160127C7EB520752
:100E000046EA074646EA036646F480062E4F403F10
:100E10003E603E1F366846F080763F1F3E6000BF52
:100E2000294E443E366806F00076002EF8D02A4E51
:100E3000366846F48076284F3E603E46366846F473
:100E400000763E603E46366846F480663E603E462A
:100E5000366846F005063E601B4E3C3E366826F07E
:100E60000306194F3C3F3E603E46366846F0020698
:100E70003E6000BF144E3C3E366806F00C06082E5D
:100E8000F8D1F0BDF0B504460D4616461F460E4893
:100E90004438006840F001000B49443908600020E4
:100EA00009493C3908600848443800680B49084043
:100EB0000549443908600A48091D13E008ED00E0BF
:100EC0000000FA0500E400E0443802400838014020
:100ED000003C014000700040003C0240FFFFF6FE75
:100EE000103000240860081F006820F48020091FCB
:100EF00008600020064908603B46324629462046E5
:100F0000FFF73BFF00210846FFF7D8FDF0BD0000CA
:100F10000C38024070477047704770477047704701
:100F200070B5044610460026051F28462E604FF473
:100F30008056051F28462E601526051F28462E6060
:100F40001426051F28462E601326051F28462E60EE
:100F50001226051F28462E601126051F28462E60E2
:100F60001026051F28462E600926051F28462E60DC
:100F70000826051F28462E600726051F28462E60D6
:100F80000626051F28462E600526051F28462E60CA
:100F90000426051F28462E600326051F28462E60BE
:100FA0000226051F28462E600126051F28462E60B2
:100FB0000026051F28462E604FF080750560051F2E
:100FC00028462C60434E051F28462E604FF01236EF
:100FD000051F28462E604FF00336051F28462E6059
:100FE0004FF00236051F28462E607610051F284652
:100FF0002E60051F284629603126051F28462E60D1
:101000003026051F28462E602926051F28462E60FB
:101010002826051F28462E602726051F28462E60F5
:101020002626051F28462E602526051F28462E60E9
:101030002426051F28462E602326051F28462E60DD
:101040002226051F28462E602126051F28462E60D1
:101050002026051F28462E601926051F28462E60CB
:101060001826051F28462E601726051F28462E60C5
:101070001626051F28462E604FF01136051F2846FC
:101080002E604FF01036051F28462E604FF00936AF
:10109000051F28462E604FF00836051F28462E6093
:1010A0004FF00736051F28462E604FF00636051F05
:1010B00028462E604FF00536051F28462E604FF05B
:1010C0000436051F28462E6070BD70477047704774
:1010D0007047000019400008EFF3108072B67047A7
:1010E00080F310887047264C4FF6FF7525604FF04F
:1010F000000484F30988234C4FF001052570224C2D
:101100004FF08055256062B6FEE730B41E4C4FF0BC
:101110008055256030BC704730B41B4C4FF0805573
:10112000256030BC704700BF72B6EFF3098050B144
:101130001EF0100F08BF20ED108A203880E8F00F55
:1011400012490968086000B5114880475DF804EB52
:10115000104811490A7802700C4810490A68026068
:10116000106890E8F00F20301EF0100F08BFB0ECB0
:10117000108A80F309884EF0040E62B6704700BFF3
:1011800022ED00E05200002004ED00E058000020B5
:10119000CB1000084700002048000020600000201D
:1011A0002DE9F04105460F4614464FF000083F2D4B
:1011B00005D9FF2D03D02A202070BDE8F08117B992
:1011C0000C202070F9E7FE48007810B11220207042
:1011D000F3E7FFF781FF8046FF2D03D1F948006850
:1011E00090F83250F84850F825602EB94046FFF785
:1011F00077FF43202070E0E7012E05D14046FFF73E
:101200006FFF43202070D8E7F7644046FFF768FF80
:101210000020207000BFD0E7EC49ED4A1278885CCE
:10122000EC49095CE94A515C01EBC001EA4A1170E2
:10123000704710B50024FFF74FFF0446E0480078E0
:10124000F8B9E6480078E0B9FFF7E6FFDE48E24982
:10125000097850F82100E2490860DF480078E14948
:10126000097888420DD0DE480068806B401CDC495C
:1012700009688863DC480068401CDB490860FFF7A8
:1012800044FF2046FFF72CFF10BD70B50546002631
:10129000CB48007800B170BDD048007800B1FAE7C3
:1012A0001DB3FFF719FF0646C648006890F83440A2
:1012B000C848005DC349096891F835108843C5499D
:1012C00008550846005D40B9BE48006890F83610E1
:1012D000BF4800788843BE490870BA480068C562B4
:1012E0003046FFF7FDFEFFF7A4FF00BFD3E72DE96F
:1012F000F04706460C464FF0000A3F2E04D9FF2E59
:1013000002D02A20BDE8F0870CB90920FAE70020B6
:1013100020606060FFF7E0FE8246FF2E03D1A948FF
:10132000006890F83260A84850F8265025B9504619
:10133000FFF7D6FE4320E5E7012D04D15046FFF725
:10134000CFFE4320DEE7287C00F0010020B95046A4
:10135000FFF7C6FE4520D5E70027D5F80C90D5F855
:1013600008805046FFF7BCFE00E07F1C58F8041BC5
:101370000029FAD0B8002060A9EB07008000606067
:101380000020BFE77CB5002514E069462846FFF73A
:10139000AEFF064666B98C4850F8254044B1012C92
:1013A00006D0D4E9020100EB810060640198A064DA
:1013B000681CC5B23F2DE8D97CBD2DE9F04105463A
:1013C0004FF000083F2D02D14720BDE8F0813F2DAE
:1013D00003D3FF2D01D02A20F7E7FFF77DFE8046DB
:1013E000FF2D05D17748006890F83250012608E0BB
:1013F0007448006890F83200A84201D1012600E04C
:101400000026714850F8254024B94046FFF768FE91
:101410004820DAE7012C04D14046FFF761FE432063
:10142000D3E794F834706B48C05D94F83510884366
:101430006849C8550846C05D30B994F8361064480C
:10144000007888436249087094F8300040F0080042
:1014500084F830004046FFF743FE012E01D1FFF72C
:10146000E8FE0020B1E7002400BF02E02820FFF7DB
:101470000CFF5E4800780028F8D05D4800686421C1
:10148000B0FBF1F05A4908600846006828B900200E
:1014900058490870FF20FFF790FF00BFFFF71CFEC0
:1014A00004465548006855490860002052490860C4
:1014B0002046FFF715FE514800684D490968B0FB0A
:1014C000F1F0C0F164004B490870FFF728FDFFF709
:1014D00059FF1420FFF7D9FEE0E72DE9F84F054644
:1014E0000F4690469946DDE90AAB00200090FFF7D1
:1014F000F3FD009042480468002C5FD0183454F883
:10150000040C3F4908600098FFF7EAFD44F8187C96
:10151000A576002020766076606144F814BC44F81B
:101520000CAC44F8108C0C9824F8080C24F8069C99
:101530000020E077E810207705F00700E076217FB3
:1015400001208840A077E17E01208840607700205C
:101550006060E060A0602062A0626062E062206380
:1015600028A06063183C002606E0002104F150002A
:1015700040F82610701CC6B2002EF6D02046FFF7A9
:10158000A5FD2046FFF7C8FCFFF7A6FD00900E481A
:1015900040F825401C48006860610020A0611A489E
:1015A000006810B11848006884611748046034343A
:1015B000A078074909780843054927E03BE0000087
:1015C0004500002058000020640C0020EE4E00086A
:1015D000490000204A00002048000020460000206A
:1015E00060000020470000202C0000204400002064
:1015F0003C00002038000020540000204000002063
:101600005C0000203F00000064000020087020788B
:10161000FB49085C6178084314F83419F84A5054BF
:10162000F8480078401CF74908700098FFF758FD0B
:101630000020BDE8F88F0098FFF752FD4220F8E740
:1016400002F0010343B102F002032BB102E0491E94
:10165000002308C00029FAD170472DE9F04F85B06A
:1016600081468A4693461C46DDE90F78129D00208C
:1016700003903F2C03D92A2005B0BDE8F08FFFF777
:101680002BFD0390E048007820B10398FFF728FD78
:101690003C20F1E7DD4850F8240088BB0120DB49FD
:1016A00041F824000398FFF71BFD2A4641463846BF
:1016B000FFF7C6FF2B465A4651464846FFF730FC17
:1016C00004901198CDE9008002953A4620460E9B81
:1016D0000499FFF702FF064636B9CD480078012885
:1016E0000CD1FFF7A6FD09E0FFF7F6FC0390002000
:1016F000C64941F824000398FFF7F2FC3046BBE7E7
:10170000FFE70398FFF7ECFC2820B5E700B587B0AA
:10171000032000218022BF4BCDE90132CDE9031027
:101720004FF6FE703E23BC4A0090AFF2C520FFF793
:1017300094FF06AAB9A13E20FFF732FD07B000BD15
:10174000002400BF00BFFFF7C7FC0446B74800688D
:10175000401CB64908602046FFF7C2FCFFF7DEFBDD
:10176000F1E700B587B0032000218022B04BCDE91E
:101770000132CDE903104FF6FF703F23AD4A0090D0
:10178000AFF24300FFF769FF06AAABA13F20FFF7C6
:1017900007FD07B000BD04E0002200F8012B4A1E3F
:1017A00091B20029F8D1704770B57821A648FFF7AB
:1017B000F2FF00230DE0581C85B203EB4300A24961
:1017C00001EBC00405EB450001EBC0062660581C88
:1017D00083B2042BEFD303EB43009B4901EBC0041E
:1017E0000020206008469949086070BD70B55021FE
:1017F0009748FFF7D0FF00240EE0601C85B29448A4
:1018000000EB041300EB0516002018705E60AFF2C9
:101810000C20D860601C84B2042CEED38C4800EB02
:101820000413002018705860AFF22820D860884850
:101830008849086070BD70B5C8218748FFF7ABFFC5
:1018400000230FE0581C85B203EB8300824901EBB3
:10185000800405EB850001EB8006002020706660A7
:10186000581C83B2092BEDD303EB83007A4901EBBB
:10187000800400202070606008467849086070BDD0
:1018800070B54FF47C717648FFF785FF4FF4807197
:101890005E48FFF780FF002414E0601CC5B2C4EB73
:1018A000C40000EB40006E4901EB8003C5EBC500AE
:1018B00000EB400001EB80065E61AFF2B820D86417
:1018C000601CC4B20B2CE8D3C4EBC40000EB400096
:1018D000634901EB800300205861AFF2D820D8643F
:1018E0000020604908605E485F49086070BD0021C3
:1018F0005E4A1170002004E00021414A1154411C4D
:10190000C8B20828F8D30021594A1170594A1170F9
:10191000594A1160594A11607047002058490860BF
:1019200039490870574908703649087038490870B5
:10193000554908603D4908605449086054490860A9
:1019400054490870704710B5FFF7E4FAFFF7E5FF58
:10195000FFF7CDFFFFF794FFFFF76DFFFFF746FF9F
:10196000FFF722FFFFF7FDFEFFF7D0FEFFF7D3FAE8
:1019700010BD27480078012808D123480078FF28A7
:1019800004D221480078401C1F490870704710B5E8
:1019900000241F480078012830D1FFF79DFB044642
:1019A0001948007820B118480078401E1649087080
:1019B00015480078F8B933480078E0B9FFF72CFCF7
:1019C00012482C49097850F821002B490860294811
:1019D00000782749097888420DD027480068806B35
:1019E000401C25490968886327480068401C26492F
:1019F0000860FFF791FB2046FFF772FB10BD000067
:101A00004A0000205300002045000020640C002004
:101A10005200002064080020600A002075432F4F08
:101A2000532D494920537461740000005400002074
:101A3000640A0020600C002075432F4F532D494944
:101A40002049646C65000000541100206C000020E7
:101A500014080020340000204C0700203000002033
:101A6000640D0020640000205C000020490000207C
:101A7000470000204800002060000020580000209F
:101A800070000020460000202C00002040000020B4
:101A90003C0000204400002010B50024F9480078E4
:101AA000012811D1FFF718FB0446F748007840B928
:101AB000F6480078FF2804D2F4480078401CF34927
:101AC00008702046FFF70CFB10BD10B50024ED4850
:101AD0000078012821D1FFF7FFFA0446EB4800788F
:101AE000C0B1EA480078401EE8490870084600780E
:101AF00060B9E548007828B92046FFF7F1FAFFF70A
:101B000098FB0AE02046FFF7EBFA06E02046FFF7D5
:101B1000E7FA02E02046FFF7E3FA10BD10B5D94816
:101B2000007890B9FFF778FBD9480078D949087058
:101B3000D948D749097850F82100D84908600846A3
:101B40000068D7490860FFF7CEFA10BD10B5002431
:101B50000220FFF79AFBFFF7BFFA04460020D149A5
:101B600008602046FFF7BCFA1420FFF78EFBFFF752
:101B7000B3FA0446CB480068CB4908600120CB4942
:101B800008702046FFF7ACFA10BD70B50026FFF7CD
:101B90009EFAFFF7A1FA0646C5480068401CC449F2
:101BA00008603046FFF79CFAB6480078012853D108
:101BB000C048007820B1012804D0022809D103E0F0
:101BC00001250BE0002509E001250120B949087035
:101BD00004E001250020B749087000BF00BF05B927
:101BE00070BDB548046833E0FFF776FA0646E06A50
:101BF00050B3E06A401EE062E06A28BB94F830000F
:101C000000F0370040B114F8300F00F0C800207029
:101C100001206070303C02E0002084F8310094F82C
:101C2000300000F0080078B93434A078A34909786E
:101C30000843A24908702078A149085C61780843EC
:101C400014F834199E4A505464693046FFF748FA34
:101C500094F832003F28C7D100BFC1E740F22310FB
:101C60007047704710B590F8342001F10B039B5C6E
:101C700090F83540A34301F10B04A35423469B5C29
:101C800023B98B7A90F83640A3438B7210BD2DE9AF
:101C9000F04F05460F4690469946A87A89490E5C52
:101CA00005F10B00805D11F800B00BEBC60000F0F1
:101CB000FF0A794850F82A4000202034E06027606D
:101CC000207C20EA0800207484F81190207C203CBD
:101CD00000F0080068B994F836007849097808439C
:101CE000764908707648805D94F835100843744949
:101CF000885529462046FFF7B5FF5046BDE8F08FCE
:101D000010B5674A1268D061654A126892F834309B
:101D100000F10B02D25C624B1B6893F835301A431A
:101D20005F4B1B6893F8344000F10B031A55827A1D
:101D30005B4B1B6893F836301A438272584A12681C
:101D400092F834105E4A525C554B1B6893F835305C
:101D50009A435B4B5A541A46525C42B9504A126835
:101D600092F83630554A12789A43544B1A7010BD87
:101D7000014600228A72002005E0002301F10B02D7
:101D80001354421CD0B20828F7D3704705E011F86D
:101D9000013B00F8013B531E9AB2002AF7D170476D
:101DA0000146002002E0491C421CD0B20A78002AF9
:101DB000F9D170472DE9F05F04460F4691461E4663
:101DC0004FF0000B24B96E2030700020BDE8F09F6A
:101DD0002078052803D0012030700020F6E709F0B4
:101DE000800ABAF1000F04D029F080094FF00108F1
:101DF00001E04FF0000800203070FFF76DF98346D6
:101E0000B9F1000F2CD0B9F1010F5DD0B9F1020F7B
:101E100003D0B9F1030F68D111E0208900EA07056A
:101E2000BD4206D1B8F1010F05D12089A843208118
:101E300001E0702030705846FFF752F95CE02089CD
:101E400000EA070535B1B8F1010F05D12089A84393
:101E5000208101E0702030705846FFF741F94BE0D7
:101E6000208927EA0005BD4206D1B8F1010F05D14E
:101E700020892843208101E0702030705846FFF708
:101E80002FF939E0520000204500002046000020D4
:101E90004800002047000020640C00206000002063
:101EA00058000020540000203C0000204400002086
:101EB000700000206800002064000020490000201D
:101EC0004A000020EE4E0008208927EA000535B1BF
:101ED000B8F1010F05D120892843208101E070204D
:101EE00030705846FFF7FCF806E05846FFF7F8F860
:101EF00000256F20307000BF00BF284666E72DE93F
:101F0000F04106460D460027F848007820B1102021
:101F100028700020BDE8F081FFF7DEF80746F4489E
:101F200004688CB100684068F149086005202070A1
:101F3000268100206060AFF63410E0603846FFF77D
:101F4000CFF80020287004E03846FFF7C9F8722067
:101F500028702046DEE730B501464A6808682AB98D
:101F6000CC68606028B10025456002E0106000B1D7
:101F700042608B6800255D6230BDF0B506460F46B5
:101F8000B4680020283460602780207A00F0DF00E9
:101F9000207200206072207A283C88B93434A078FE
:101FA000D44909780843D34908702078D249085C9D
:101FB0006178084314F83419CF4A5054012500E0E1
:101FC00000253046FFF7C7FF2846F0BD2DE9F04752
:101FD0000446894615464FF0000A24B96E20287041
:101FE0002046BDE8F087C148007818B10F2028705E
:101FF0002046F6E72078052803D0012028702046E7
:10200000EFE7FFF769F88246606808B1012700E052
:102010000027B9F1000F03D0B9F1010F3ED11AE04A
:1020200097B9AFF62020E06000202070B04800682B
:10203000606000202081AE4804605046FFF750F8F1
:1020400000202870002605E05046FFF749F8492097
:102050002870264629E0D4F8048005E00021404697
:10206000FFF78BFFD8F80080B8F1000FF6D1AFF67C
:102070006C20E060002020709D48006860600020B7
:1020800020819B4804605046FFF72AF8012F01D1B8
:10209000FFF7CFF800202870002606E05046FFF733
:1020A0001FF807202870264600BF00BF304698E77B
:1020B0002DE9F04105460E461446002725B96E204D
:1020C00020700020BDE8F0811EB90C202070002097
:1020D000F8E78648007818B1112020700020F1E759
:1020E000FEF7FAFF07462878052806D03846FEF79F
:1020F000F7FF012020700020E4E7E86830603068D6
:10210000FFF74EFE80463846FEF7EAFF00202070BB
:102110004046D7E72DE9F04105460E461446002714
:102120001DB96E202070BDE8F08116B90C2020701A
:10213000F9E76E48007810B112202070F3E7FEF73F
:10214000CBFF07462878052805D03846FEF7C8FF9C
:1021500001202070E7E7EE603846FEF7C1FF00205F
:10216000207000BFDFE7F0B51446059E634F3F685F
:1021700097F8307047F02007DFF880C1DCF800C026
:102180008CF830700027DFF874C1DCF800C08CF8E0
:1021900031705A4F3F68FE62584F3F6879620C8237
:1021A0008B74564F3F688F6047680F6000274F6001
:1021B000C860456805B169604160504F3F6897F855
:1021C00034204D4FBF5CDFF834C1DCF800C09CF810
:1021D00035C027EA0C07DFF820C10CF8027067460B
:1021E000BF5C5FB9454F3F6897F836C0414F3F78B5
:1021F00027EA0C07DFF8FCC08CF80070F0BD2DE971
:10220000F04F89B005460F4691469A46129E00202F
:1022100002902DB96E203070002009B0BDE8F08F1B
:102220003248007818B1022030700020F5E73448B9
:10223000007818B10D2030700020EEE728780528CE
:1022400003D0012030700020E7E709F0800BBBF1DC
:10225000000F04D009F07F094FF0010801E04FF0B2
:102260000008FEF739FF0290B9F1000F56D0B9F11E
:10227000010F76D0B9F1020F03D0B9F1030F6FD17E
:1022800020E0288900EA0704BC420FD1B8F1010F11
:1022900002D12889A0432881184800680485029843
:1022A000FEF71EFF002030702046B6E74B463A4648
:1022B00004A92846CDF800A0FFF755FF0298FEF7C5
:1022C0000FFF76E0288900EA0704DCB1B8F1010FBE
:1022D00002D12889A0432881084800680485029813
:1022E000FEF7FEFE00203070204696E745000020F5
:1022F00034000020490000204A000020580000203F
:10230000460000204B463A4604A92846CDF800A0D6
:10231000FFF729FF0298FEF7E3FE4AE0288927EA43
:102320000004BC420FD1B8F1010F02D1288920432B
:102330002881FE48006804850298FEF7D1FE00203F
:102340003070204669E74B463A4604A92846CDF846
:1023500000A0FFF708FF0298FEF7C2FE29E000E0A8
:102360001FE0288927EA00047CB1B8F1010F02D1EF
:10237000288920432881ED48006804850298FEF7EB
:10238000AFFE00203070204647E74B463A4604A98E
:102390002846CDF800A0FFF7E6FE0298FEF7A0FE63
:1023A00007E00298FEF79CFE00246F203070204664
:1023B00033E700BFFEF73DFFFEF78EFE0290DB48DD
:1023C000006890F8310020B3D848006890F83100D8
:1023D00003900020D549096881F8310004A8FFF76F
:1023E000BAFD0020D149096881F830000298FEF753
:1023F00077FE00240398012805D0022802D10E2080
:10240000307003E000BF0A20307000BF00BF2046DC
:1024100003E7C6480068048DB8F1010F1ED1B9F179
:10242000000F0ED0B9F1010F0CD0B9F1020F03D09B
:10243000B9F1030F0AD100E000BF2889A043288129
:102440000BE000BF28892043288106E00298FEF7B0
:1024500047FE6F2030700020DFE600BF0298FEF7D5
:102460003FFE002030702046D7E670B50025FEF70D
:1024700033FE0546AD480068048D2846FEF730FE61
:10248000204670BD2DE9FC5F0446894692461E46F3
:102490000020009024B96E2030700020BDE8FC9F21
:1024A0002078052803D0012030700020F6E7FEF7E1
:1024B00013FE0090BAF1000F03D0BAF1010F0AD158
:1024C00004E0208920EA090020810BE0208940EA0D
:1024D0000900208106E00098FEF702FE71203070AE
:1024E0000020DBE700BF4FF0000B656855E0A87CDB
:1024F00040B3012838D0022802D0032844D111E08B
:102500002089298A00EA0107288AB84209D1394678
:102510002846FFF732FD8046B8F1010F01D14FF098
:10252000010B38E02089298A00EA01074FB13946BA
:102530002846FFF722FD8046B8F1010F01D14FF088
:10254000010B28E0288A218920EA0107288AB8425D
:1025500009D139462846FFF710FD8046B8F1010F32
:1025600001D14FF0010B16E0288A218920EA0107EA
:102570004FB139462846FFF700FD8046B8F1010FFC
:1025800001D14FF0010B06E00098FEF7A9FD6F2086
:102590003070002082E700BF2D68002DA7D1009881
:1025A000FEF79EFDBBF1010F01D1FEF742FEFEF7E3
:1025B00093FD0090208901900098FEF791FD002086
:1025C000307001986AE72DE9F04104460D46002776
:1025D00024B96E2028700020BDE8F08120780528FD
:1025E00003D0012028700020F6E7FEF775FD0746AE
:1025F00026893846FEF774FD002028703046EBE748
:1026000070B5044600260CB9002070BD2078012862
:1026100001D00020F9E7FEF75FFD0646656800205F
:1026200060603046FEF75CFD2846EEE770B5054673
:1026300000263F48007808B1002070BDFEF74CFD31
:1026400006463C480468006820B13A480068406883
:10265000384908603046FEF743FD3CB10120207048
:102660000020208165602046FFF782FB2046E4E7DA
:102670002DE9F0470446884615464FF0000924B975
:10268000042028702046BDE8F0872078012803D078
:10269000012028702046F6E72548007818B10F2061
:1026A00028702046EFE7FEF717FD8146A07A08B1B3
:1026B000012700E00027B8F1000F03D0B8F1010FA7
:1026C0003CD117E07FB9002020701A480068606094
:1026D00000202081174804604846FEF701FD0020D5
:1026E0002870002605E04846FEF7FAFC49202870CD
:1026F00026462AE005E00023022219462046FFF77D
:10270000C6FAA07A0028F6D120700A4800686060F6
:1027100000202081074804604846FEF7E1FC012FB5
:1027200001D1FEF786FD0020287005E0580000204A
:102730004500002030000020002606E04846FEF755
:10274000CFFC07202870264600BF00BF30469AE71E
:102750002DE9F04105460F4614464FF0000825B913
:10276000042020700020BDE8F0812878012803D0E3
:10277000012020700020F6E7FE48007818B1022002
:1027800020700020EFE7FC48007818B10D20207081
:102790000020E8E7FEF7A0FC80466E6846B1002006
:1027A00068604046FEF79CFC002020703046DAE767
:1027B000F248006890F8300040F00200EF490968E4
:1027C00081F830000020ED49096881F83100EB48BC
:1027D0000068C7622846FFF793FA4046FEF780FC80
:1027E000FEF727FDFEF778FC8046E448006890F885
:1027F000310020B101280DD002280AD105E0DF48C0
:102800000068066A002020700DE000260E2020706F
:1028100009E000BF2946D9480068FFF723FA0026DF
:102820000A20207000BF00BF0020D449096881F849
:102830003000D249096881F83100D0490968C8617F
:10284000CE49096808624046FEF74AFC30468AE7EE
:102850002DE9F04104460F4615464FF0000824B913
:10286000042028700020BDE8F0812078012803D0E2
:10287000012028700020F6E7FEF72EFC8046A07AA3
:1028800020B300267FB1012F0CD107E002231A46A6
:1028900000212046FFF7FBF9701CC6B2A07A002881
:1028A000F4D109E000BF02231A4600212046FFF7B9
:1028B000EEF9701CC6B200BF00BF4046FEF710FC28
:1028C000FEF7B7FC0E2028703046CCE74046FEF7F6
:1028D00007FC0020287000BFC5E770B504460D4610
:1028E00000260CB9042070BD0DB90320FBE7207849
:1028F000012801D00120F6E7FEF7EEFB0646A07A9C
:1029000060B10023022229462046FFF7C0F9304675
:10291000FEF7E6FBFEF78DFC0020E4E7606820B1DF
:102920003046FEF7DDFB1420DDE765603046FEF73C
:10293000D7FB0020D7E72DE9F04104460D461646A7
:10294000002714B90420BDE8F0810DB90320FAE78F
:102950002078012801D00120F5E7FEF7BDFB0746EE
:10296000A07AE8B106F0010050B105E00023022290
:1029700029462046FFF78BF9A07A0028F6D105E01A
:102980000023022229462046FFF781F93846FEF748
:10299000A7FB06F0040008B9FEF74BFC0020D2E7C5
:1029A000606820B13846FEF79BFB1420CBE76560DA
:1029B0003846FEF795FB0020C5E72DE9F0470446B1
:1029C0000D464FF0000914B90420BDE8F0870DB999
:1029D0000920FAE72078012801D00120F5E7FEF769
:1029E0007BFB8146A07A287304F10B0705F10408EC
:1029F000002605E017F8010B08F8010B701CC6B2A1
:102A0000082EF7D3606828604846FEF769FB00206F
:102A1000DBE72DE9F04104460D46002724B90420E8
:102A200028700020BDE8F0812078042803D0012020
:102A300028700020F6E74F48007818B1022028706F
:102A40000020EFE7FEF748FB074620890612207AB0
:102A5000FF2820D1208900F47F4020812089474928
:102A6000096891F83210084320814448006860608A
:102A70004248006890F83200B04205DC3846FEF764
:102A80002FFB7820287004E03846FEF729FB002051
:102A900028700120C6E73846FEF722FB0020287088
:102AA00000BFBFE72DE9F04104460D4600273F2C4B
:102AB00004D32A2028700020BDE8F0812D4800783A
:102AC00018B1102028700020F6E7FEF705FB074636
:102AD0002B4850F8240030B13846FEF701FB28207F
:102AE00028700020E8E70120254941F82400254806
:102AF00006684EB9002041F824003846FEF7F0FA87
:102B0000042028703046D7E71E48006840681D49F9
:102B100008603846FEF7E4FA04203070FF2040EAEF
:102B200004203081002070603046FFF721F900203A
:102B300028703046C0E730B590F83420124B9B5CCB
:102B400090F83540A343104CA35423469B5C33B903
:102B500090F836400D4B1B78A3430C4C237000F8C3
:102B6000321F0B4B1970C1F3C203837001F00703CE
:102B700043700FE045000020460000205800002070
:102B8000640C0020300000204A0000204900002092
:102B90004700002084780123A34003714478012377
:102BA000A340C3700379FE4C24782343FC4C23706C
:102BB0008378FC4CE35CC478234384783238F94D45
:102BC0002B55F94B43F8210030BD2DE9F84F044651
:102BD0008A4615460020009024B90420287020461B
:102BE000BDE8F88F2078042803D001202870204603
:102BF000F6E7EE48007818B10F2028702046EFE77E
:102C0000FEF76AFA0090A07A10B14FF0010801E0D7
:102C10004FF00008BAF1000F03D0BAF1010F54D100
:102C20001EE0B8F1000F14D1208907120020DE4900
:102C300041F827002070DE48006860600020208195
:102C4000DB4804600098FEF74BFA0020287000264D
:102C500005E00098FEF744FA4920287026463BE03C
:102C60002089071294F808B0D4F80490B9F1000F45
:102C700007D099F83200B84203D159464846FFF7C9
:102C80005AFF05E00023102219462046FEF7FFFFF9
:102C9000A07A0028F6D1208907120020C24941F805
:102CA00027002070C2480068606000202081C04872
:102CB00004600098FEF714FAB8F1010F01D1FEF795
:102CC000B8FA00202870002606E00098FEF708FAFF
:102CD00007202870264600BF00BF304680E72DE958
:102CE000F74F82B0054617460020019025B9042011
:102CF000387005B0BDE8F08F2878042802D0012094
:102D00003870F6E7A948007810B102203870F0E773
:102D1000A848007810B10D203870EAE7FEF7DCF91A
:102D2000019028894FEA2029287AFF281FD1288975
:102D300000F47F40288128899F49096891F8321062
:102D4000084328819C48006868609B48006890F8A8
:102D50003200484505DC0198FEF7C2F9782038704A
:102D600004E00198FEF7BCF900203870C1E795F83F
:102D700008B06C6894F8320048457ADD8E480068E7
:102D800090F83200584574DA94F83480854810F889
:102D9000080094F835100840B0B1824810F80800D7
:102DA00094F8351088437F4901F80800084610F868
:102DB000080030B994F8361079480078884378498B
:102DC00008704FF0010A19E0E669AEB194F834805A
:102DD00006F10B0010F8080094F83510884306F14E
:102DE0000B0101F80800084610F8080020B9B07A75
:102DF00094F836108843B0724FF0000A04F8329FFE
:102E00002078C010A070207800F007006070A178D2
:102E1000012088402071617801208840E070323CB8
:102E2000BAF1010F10D13434A0785D490978084314
:102E30005B49087020785B49085C6178084314F8A6
:102E40003419584A505411E0E6697EB1B07A3434EE
:102E5000A1780843B072217806F10B00405C6178DC
:102E6000084314F8342906F10B0188544E4840F801
:102E700029405148006890F8300040F010004E4959
:102E8000096881F8300000204B49096881F8310059
:102E9000494903980968C8622846FEF731FF01983E
:102EA000FEF71EF9FEF7C5F9FEF716F90190424844
:102EB000006890F8310020B1012809D0022806D11D
:102EC00002E0002038700BE00E20387008E000BFF0
:102ED000294639480068FEF7C5FE0A20387000BF51
:102EE00000BF00203449096881F830003249096880
:102EF00081F8310030490968C8610198FEF7F0F89F
:102F000000BFF6E62DE9F041044600272748007887
:102F100010B10520BDE8F0810CB90420FAE7207853
:102F2000042801D00120F5E7FEF7D6F807462089EE
:102F30000612257A204960680968884204D038461C
:102F4000FEF7CEF86420E5E71B48006890F83200F1
:102F5000B04204D1294618480068FFF7ECFD012073
:102F6000114941F82600A07A40B3002310221946E7
:102F70002046FEF78CFE0546208900F47F40208124
:102F8000208928432081084850F825006060B54218
:102F900015DC3846FEF7A4F8FEF74BF97820B9E7C0
:102FA000490000204A000020640C00204500002059
:102FB00030000020460000205800002006E038467F
:102FC000FEF78EF8FEF735F90020A3E7208940F0E0
:102FD000FF002081002060603846FEF781F8002065
:102FE00098E72DE9F04705460C464FF00009FC48EC
:102FF000007810B10620BDE8F0870DB90420FAE78B
:103000000CB90920F7E72878042801D00120F2E75D
:10301000FEF762F8814628890012E072287AA072D1
:10302000A07AFF2802D10120607201E000206072C6
:10303000A87A207205F10B082646002705E018F84B
:10304000010B06F8010B781CC7B2082FF7D34846CE
:10305000FEF746F80020CEE72DE9F04106460D4682
:103060004FF0000826B9042028700020BDE8F08148
:103070003078022803D0012028700020F6E7FEF700
:103080002BF880467468E08A78B12169081D2061B8
:103090000F68E08A401EE082A1682069884201D161
:1030A000606820610020287002E01F20287000273F
:1030B0004046FEF715F83846D8E72DE9F0410646B8
:1030C0000F464FF00008C648007810B10020BDE858
:1030D000F081FEF701F88046C2480568006820B11B
:1030E000C04800684068BF4908604046FDF7F8FFE7
:1030F0003DB3FDF7F1FF8046BB480468C4B10068EA
:103100000068B94908604046FDF7EAFF666006EBD3
:103110008700A060E6602661A7820020E08202208E
:103120002870002028816C602846FEF721FE08E008
:10313000AC4800686860AB4805604046FDF7D0FFCA
:1031400000252846C3E72DE9F04704468946154681
:103150004FF0000A24B9042028702046BDE8F0870B
:103160002078022803D0012028702046F6E79C48EA
:10317000007818B10F2028702046EFE7FDF7ACFF6C
:103180008246A07A10B14FF0010801E04FF000082C
:10319000B9F1000F03D0B9F1010F45D11FE0B8F12B
:1031A000000F15D166689048006830608E48066050
:1031B000002020708B4800686060002020818948D2
:1031C00004605046FDF78CFF00202870002705E0C2
:1031D0005046FDF785FF4920287027462BE005E083
:1031E0000023042219462046FEF751FDA07A00284C
:1031F000F6D166687C48006830607B480660002035
:103200002070784800686060002020817548046064
:103210005046FDF765FFB8F1010F01D1FEF709F83F
:1032200000202870002706E05046FDF759FF0720D0
:103230002870274600BF00BF38468FE770B50546A7
:1032400000260DB9042070BD2878022801D0012085
:10325000F9E7FDF741FF06466C686068E06060686A
:1032600020610020E0823046FDF73AFF0020EAE7C7
:103270002DE9F0470646884615464FF0000926B965
:10328000042028700020BDE8F0873078022803D0A1
:10329000012028700020F6E75148007818B102207C
:1032A00028700020EFE75148007818B10D202870F1
:1032B0000020E8E7FDF710FF81467468E08A98B1C6
:1032C0002169081D20610F68E08A401EE082A16824
:1032D0002069884201D1606820614846FDF700FFFF
:1032E000002028703846CEE74148006890F830004A
:1032F00040F004003E49096881F8300000203C4954
:10330000096881F831003A480068C0F82C803046DE
:10331000FEF7F6FC4846FDF7E3FEFDF78AFFFDF7F2
:10332000DBFE81463248006890F8310020B1012868
:103330000DD002280AD105E02D480068076A002058
:1033400028700DE000270E20287009E000BF3146EC
:1033500027480068FEF786FC00270A20287000BF77
:1033600000BF00202249096881F83000204909681F
:1033700081F831001E490968C8611D490968086261
:103380004846FDF7ADFE38467DE72DE9F04104469D
:103390000F4615464FF0000824B90420287000207D
:1033A000BDE8F0812078022803D001202870002099
:1033B000F6E7FDF791FE8046A07A78B30026D7B1F4
:1033C000012F17D107E00223042200212046FEF737
:1033D0005EFC701CC6B2A07A0028F4D114E0000094
:1033E00045000020300000206C0000204600002036
:1033F0005800002000BF0223042200212046FEF7CF
:1034000046FC701CC6B200BF00BF4046FDF768FE18
:10341000FDF70FFF0E2028703046C1E7FFE740465A
:10342000FDF75EFE0020287000BFB9E72DE9F041EE
:1034300005460E46002715B90420BDE8F08128781E
:10344000022801D00120F8E7FDF746FE0746A87ADA
:1034500060B10023042231462846FEF718FC3846A6
:10346000FDF73EFEFDF7E5FE0020E6E76C68E08A2A
:10347000A18A884204DB3846FDF732FE1E20DCE7D5
:10348000E168081DE0600E60E08A401CE082D4E93B
:103490000210884201D16068E0603846FDF720FEE6
:1034A0000020CAE72DE9F04105460E46002715B970
:1034B0000420BDE8F0812878022801D00120F8E737
:1034C000FDF70AFE0746A87A60B1002304223146C0
:1034D0002846FEF7DCFB3846FDF702FEFDF7A9FEA5
:1034E0000020E6E76C68E08AA18A884204DB38465F
:1034F000FDF7F6FD1E20DCE761682069884201D1F6
:10350000A06820612069001F206120690660E08AB0
:10351000401CE0823846FDF7E3FD0020C9E72DE9B5
:10352000F04105460F4616464FF0000815B9042035
:10353000BDE8F0812878022801D00120F8E7FDF7E6
:10354000CBFD8046A87AE8B106F0010050B105E055
:103550000023042239462846FEF799FBA87A002862
:10356000F6D105E00023042239462846FEF78FFBFA
:103570004046FDF7B5FD06F0040008B9FDF759FE19
:103580000020D5E76C68E08AA18A884204DB4046C7
:10359000FDF7A6FD1E20CBE706F0020058B16168DA
:1035A0002069884201D1A06820612069001F206144
:1035B0002069076009E0E168081DE0600F60D4E958
:1035C0000210884201D16068E060E08A401CE0821D
:1035D0004046FDF785FD0020AAE72DE9F0470546A6
:1035E0000C464FF0000A15B90420BDE8F0870CB96D
:1035F0000920FAE72878022801D00120F5E7FDF735
:103600006BFD8246A87A207405F10B0804F10809C5
:10361000002705E018F8010B09F8010B781CC7B268
:10362000082FF7D36E68F08A18B1306900682060FF
:1036300001E000202060F08AA080B08AE08050463F
:10364000FDF74EFD0020D0E770B5044600260CB90A
:10365000002070BD2078032801D00020F9E7FDF795
:103660003BFD0646258915B12089401E2081304644
:10367000FDF736FD2846ECE770B505460026F8480C
:10368000007808B1002070BDFDF726FD0646F5481C
:103690000468006820B1F34800684068F149086098
:1036A0003046FDF71DFD3CB1032020702581002030
:1036B00060602046FEF75CFB2046E4E72DE9F0471A
:1036C0000446884615464FF0000924B904202870A6
:1036D0002046BDE8F0872078032803D00120287019
:1036E0002046F6E7DE48007818B10F202870204603
:1036F000EFE7FDF7F1FC8146A07A08B1012700E071
:103700000027B8F1000F03D0B8F1010F35D117E051
:103710007FB900202070D3480068606000202081BD
:10372000D04804604846FDF7DBFC002028700026E6
:1037300005E04846FDF7D4FC49202870264623E0E2
:1037400005E00023012219462046FEF7A0FAA07AE0
:103750000028F6D12070C3480068606000202081F6
:10376000C04804604846FDF7BBFC012F01D1FDF7BE
:1037700060FD00202870002606E04846FDF7B0FCFA
:1037800007202870264600BF00BF3046A1E72DE97C
:10379000F04105460E46144600271DB9042020704E
:1037A000BDE8F0812878032802D001202070F7E7D7
:1037B000AB48007810B102202070F1E7AA480078E9
:1037C00010B10D202070EBE7FDF786FC0746288935
:1037D00040B12889401E28813846FDF781FC002031
:1037E0002070DDE7A148006890F8300040F001004B
:1037F0009E49096881F8300000209C49096881F8D9
:1038000031009A480068C6622846FEF779FA3846C1
:10381000FDF766FCFDF70DFDFDF75EFC07469348DE
:10382000006890F8310020B1012809D0022806D1A3
:1038300002E0002020700BE00E20207008E000BFA6
:1038400029468A480068FEF70DFA0A20207000BF5A
:1038500000BF00208549096881F830008349096864
:1038600081F8310081490968C8613846FDF738FCA4
:1038700000BF95E72DE9F04104460F4615464FF08D
:10388000000824B9042028700020BDE8F0812078C9
:10389000032803D0012028700020F6E7FDF71CFC68
:1038A0008046A07A20B300267FB1012F0CD107E01B
:1038B0000223012200212046FEF7E9F9701CC6B25E
:1038C000A07A0028F4D109E000BF022301220021E0
:1038D0002046FEF7DCF9701CC6B200BF00BF4046B0
:1038E000FDF7FEFBFDF7A5FC0E2028703046CCE767
:1038F0004046FDF7F5FB0020287000BFC5E770B516
:10390000044600250CB9042070BD2078032801D09E
:103910000120F9E7FDF7E0FB0546A07A60B100233E
:10392000012219462046FEF7B2F92846FDF7D8FBDA
:10393000FDF77FFC0020E7E720894FF6FF71884202
:1039400007D22089401C20812846FDF7C9FB0020B2
:10395000DAE72846FDF7C4FB3320D5E72DE9F04729
:1039600004460D464FF0000914B90420BDE8F08765
:103970000DB90920FAE72078032801D00120F5E7E6
:10398000FDF7AAFB8146A07AA87204F10B0705F1A6
:103990000208002605E017F8010B08F8010B701C5F
:1039A000C6B2082EF7D3208928804846FDF798FB39
:1039B0000020DBE72DE9F04104460E4615460027BE
:1039C0001CB904202870BDE8F0812078032802D0BB
:1039D00001202870F7E7FDF77FFB074600202870DD
:1039E000208908B1268105E0A07A08B9268101E086
:1039F000492028703846FDF773FB00BFE3E72DE947
:103A0000FF5F81460F4600200090B9F13F0F06D3BB
:103A1000B9F1FF0F03D02A2004B0BDE8F09F3F2F7B
:103A200001D32A20F8E7FDF757FB0090104850F823
:103A3000270020B10098FDF753FB2820ECE7B9F1EF
:103A4000FF0F03D10948006890F83290084850F8F9
:103A500029407CB90098FDF743FB2920DCE70000F2
:103A600045000020300000204600002058000020C3
:103A7000640C0020012C04D10098FDF731FB432099
:103A8000CAE74FEAE70807F007000390012000FAB1
:103A900008F000F0FF0A01210398814001F0FF0BBC
:103AA0000020FE4941F82900084640F8274014F854
:103AB000346FA07802906078343C0190F848815DC2
:103AC00001980140E1B1F648805D01998843F449CD
:103AD00088550846805D28B9F248007802998843E5
:103AE000F0490870EF48007840EA0A00ED49087094
:103AF000EB4810F8080040EA0B00E94901F808001B
:103B0000E569E5B105F10B00805D0199884305F198
:103B10000B0188550846805D18B9A87A0299884338
:103B2000A872A87A40EA0A00A87205F10B0010F802
:103B3000080040EA0B0005F10B0101F8080084F8C9
:103B4000327084F83480039884F8330084F836A007
:103B500084F835B00098FDF7C3FAD34800780128FF
:103B600001D1FDF766FB002056E72DE9FE4F064622
:103B70000F4690461C464FF000093F2C02D92A20E0
:103B8000BDE8FE8FFDF7A8FA8146C848007820B14D
:103B90004846FDF7A5FA3C20F2E7C04850F824005B
:103BA00060BB0120BD4941F824004846FDF798FA62
:103BB0000023424639463046FDF7B2F982460020DE
:103BC0000090019003460246514602902046FDF7C0
:103BD00084FC054635B9B448007801280CD1FDF7BE
:103BE00028FB09E0FDF778FA81460020AB4941F84F
:103BF00024004846FDF774FA2846C1E74846FDF719
:103C00006FFA2820BCE72DE9F04105460027A748B8
:103C1000007810B14020BDE8F0813F2D01D13E2059
:103C2000F9E73F2D03D3FF2D01D02A20F3E7FDF75D
:103C300053FA0746FF2D03D19D48006890F8325093
:103C4000964850F8254024B93846FDF749FA4320F4
:103C5000E1E7012C04D13846FDF742FA3D20DAE7CE
:103C600014F8340F8E49085C6178884321788C4AB7
:103C7000505414F834091146085C30B994F83610E1
:103C800088480078884387490870E06918B1204661
:103C9000E169FDF7E7FF666A16B13046FEF75BF9AA
:103CA0000020E06284F8300084F831008148007818
:103CB000FF2804D27F480078401C7E4908703846AF
:103CC000FDF70EFAFDF7CDFFFDF706FA0746794836
:103CD000007820B177480078401E76490870204669
:103CE000FDF71BF974480078401E734908700020E6
:103CF0006A4941F82500A06930B9002061698861EE
:103D00006E496069086005E0D4E905014861D4E9BD
:103D1000051088616A48006860616948046069A0AC
:103D2000E0643846FDF7DCF95F480078012801D1EE
:103D3000FDF77FFA00206EE72DE9F04104460027E9
:103D40003F2C02D13E20BDE8F0813F2C03D3FF2C55
:103D500001D02A20F7E7FF2C0BD1FDF7BDF907466C
:103D60005348006890F837603846FDF7B9F9304697
:103D7000E9E7FDF7B1F90746484850F8245025B95E
:103D80003846FDF7ADF94320DDE7012D04D1384673
:103D9000FDF7A6F93D20D6E73F2085F837003846E5
:103DA000FDF79EF90020CEE72DE9F04705460E46C7
:103DB00014464FF000083F2D06D9FF2D04D02A20CD
:103DC00020700020BDE8F0871EB90C202070002074
:103DD000F8E73648007818B1112020700020F1E78C
:103DE000FDF77AF98046FF2D03D13148006890F83D
:103DF00032502A4850F8257037B94046FDF770F91F
:103E0000432020700020DDE7012F06D14046FDF75A
:103E100067F9432020700020D4E7F86C30603068E8
:103E2000FDF7BEFF81464046FDF75AF9002020709D
:103E30004846C7E770B5054600263F2D01D32A2026
:103E400070BDFDF749F90646144850F8254024B9DD
:103E50003046FDF745F94620F2E7012C04D1304603
:103E6000FDF73EF94320EBE794F8300000F008003E
:103E700050B314F8300F00F0F700207014F8300938
:103E800098BBE06A90BB3434A078064909780843AF
:103E90000449087020780249085C16E0640C002090
:103EA0004A00002049000020520000204500002068
:103EB000580000204600002053000020640000202D
:103EC0005C0000203F0000001AE06178084314F80D
:103ED0003419AB4A50543046FDF702F9A94800782E
:103EE00001280BD1FDF7A5F908E004E0FFE7304613
:103EF000FDF7F6F802E03046FDF7F2F800209FE704
:103F00003046FDF7EDF844209AE72DE9F0410446EC
:103F10000E4600273F2C04D9FF2C02D02A20BDE8F2
:103F2000F0810EB90920FAE7FDF7D6F80746FF2C15
:103F300003D19548006890F83240944850F82450D6
:103F400025B93846FDF7CCF82920E8E7012D04D142
:103F50003846FDF7C5F84320E1E7542229463046AC
:103F6000FDF714FF3846FDF7BBF80020D7E72DE931
:103F7000F04704460E4615464FF000093F2C06D385
:103F8000FF2C04D02A2028700020BDE8F0871EB145
:103F9000082028700020F8E7FDF79EF88146FF2CE6
:103FA00002D17948076802E0784850F8247007F198
:103FB000500050F826804846FDF792F800202870FF
:103FC0004046E2E72DE9F04704460E4690461D467E
:103FD0004FF000093F2C05D3FF2C03D02A20287076
:103FE000BDE8F08716B108202870F9E7FDF774F8EE
:103FF0008146FF2C02D16448076802E0634850F80C
:10400000247007F1500040F826804846FDF768F814
:104010000020287000BFE3E710B55B480068FDF79B
:1040200057F8FF20FFF7EFFD10BD2DE9F0410746DF
:104030000C4615461E465648007810B15520BDE87E
:10404000F0815448007808B13220F8E727B91CB94C
:1040500015B90EB95420F2E73B2C01D95120EEE7F7
:104060003B2D01D95220EAE7B6F57A7F01D35320E0
:10407000E5E7B01CC82148434FF47A71B0FBF1F179
:104080004FF461607843C4EB041200EB82002844D3
:1040900000EBC00202EB001001EBC0084046FDF748
:1040A000F4F80020CBE770B5054600263F2D01D37C
:1040B0002A2070BDFDF710F80646344850F8254018
:1040C00024B93046FDF70CF84320F2E7012C04D167
:1040D0003046FDF705F84320EBE7E06A20B93046AB
:1040E000FCF7FEFF5020E4E70020E06294F8300087
:1040F00000F0370040B114F8300F20F03700207086
:1041000001206070303C02E0002084F8310094F817
:10411000300000F00800A8B93434A0781E490978AE
:1041200008431D49087020781549085C61780843E8
:1041300014F83419124A50543046FCF7D1FFFDF7F9
:1041400078F802E03046FCF7CBFF0020B1E770B50D
:104150000025FCF7C1FF0546104804682846FCF717
:10416000BFFF204670BD70B504460025FCF7B4FFC4
:1041700005460A4804602846FCF7B2FF70BD0000FF
:104180004A0000205200002058000020640C00204B
:10419000450000204600002049000020700000205B
:1041A00032490143324A1160704770B50021002343
:1041B0000F22C4781CB32E4C246804F4E064C4F5C8
:1041C000E064C4F30721C1F10404E3B20A41447876
:1041D0009C40E1B28478144021430C07210E254C09
:1041E00005786155047804F01F050124AC4005787A
:1041F0006D11AD0005F1E025C5F8004109E0047836
:1042000004F01F050124AC401B4D0678761145F8DB
:10421000264070BD194A0A400243154B1B1F1A6005
:10422000704739B1124A121D12680243104B1B1D10
:104230001A6006E00E4A121D126882430C4B1B1DC9
:104240001A607047042808D14FF0E021096941F055
:1042500004014FF0E022116107E04FF0E02109690D
:1042600021F004014FF0E022116170470000FA05CF
:104270000CED00E000E400E080E100E080FFFF1FC3
:1042800010B504469848844208D10121084600F040
:1042900086FB0021012000F082FB76E093488442F7
:1042A00008D10121022000F07AFB0021022000F059
:1042B00076FB6AE08E48844208D10121042000F098
:1042C0006EFB0021042000F06AFB5EE08948844216
:1042D00008D10121082000F062FB0021082000F035
:1042E0005EFB52E08448844208D10121102000F096
:1042F00056FB0021102000F052FB46E07F4884422C
:1043000008D10121202000F04AFB0021202000F0EC
:1043100046FB3AE07A48844208D10121402000F06F
:104320003EFB0021402000F03AFB2EE0754884421D
:1043300008D10121802000F032FB0021802000F014
:104340002EFB22E07048844208D10121801500F044
:1043500026FB0021A01500F022FB16E06B488442EA
:1043600008D10121401500F01AFB0021601500F072
:1043700016FB0AE06648844207D10121001500F0CF
:104380000EFB0021201500F00AFB10BDF0B50A4617
:1043900000210023002400BF3DE0012505FA01F3C0
:1043A000156805EA03049C4234D105684F000326D2
:1043B000BE40B543056015794E00B54006683543EB
:1043C00005601579012D02D01579022D16D1856869
:1043D0004F000326BE40B543856055794E00B54079
:1043E000866835438560456801268E40B543456043
:1043F000456896798E40B6B235434560C5684F0032
:104400000326BE40B543C560D5794E00B540C668A9
:104410003543C560491C1029BFD3F0BD4FF6FF716D
:1044200001600021017141718171C171704708B54E
:104430004FF480320092009A0A430092009AC261BF
:10444000C161009AC261C2690092C269009208BD4E
:104450000246002013690B400BB1012000E0002050
:1044600070470146086980B27047024600205369D0
:104470000B400BB1012000E0002070470146486965
:1044800080B2704701837047418370470AB101834E
:1044900000E0418370474161704742694A40426190
:1044A0007047F0B5002300244D07ED0E02FA05F326
:1044B000CE1000F1200555F826504E07F70E0F26B6
:1044C000BE40B543CF1000F1200646F82750CE106D
:1044D00000F1200555F8265045EA0304CE1000F1FE
:1044E000200545F82640F0BD0000024000040240CF
:1044F00000080240000C024000100240001402407C
:1045000000180240001C024000200240002402402B
:1045100000280240F948006840F00100F7490860AF
:104520000020F64908310860F4480068F449084062
:10453000F2490860F348091D0860F348EF498431E7
:104540000860F0481038091D0860EC48006820F445
:104550008020EA4908600020E8490C310860E749FA
:104560008C31086070470021E44A921C117011469A
:104570000870704710B501460022002300204A1140
:10458000012A02D1DD4C236808E0022A03D1DB4C6A
:104590007034236802E0D94C7434236801F01F02A0
:1045A000012494401C400CB1012000E0002010BD0B
:1045B00038B5002000900024002500BF3120FFF70F
:1045C000D9FF05460098401C00900098B0F5A04F18
:1045D00001D0002DF2D03120FFF7CCFF08B101242B
:1045E00000E00024204638BD01460020C34A106880
:1045F00020F0F80040EAC10010607047C34908602D
:1046000070470021BD4A703211701170012802D02C
:1046100004280AD104E00121B84A7032117005E083
:104620000521B64A7032117000E000BF00BF70472C
:10463000B7490860704770B5049C41EA82150126AD
:10464000C6EB530645EA0645054345EA0465AB4E0D
:10465000361D356070BDAD4908667047820142EA7B
:104660000172A64B84331A607047A8498866704768
:1046700010B5830143EA016343EA02739F4C883417
:10468000236010BDA14908677047A049C8647047FE
:1046900002460020994B0833186820F0EC6042EA8B
:1046A00001031843954B08331860704702460020F9
:1046B000924B0833186820F0784042EA010318430F
:1046C0008E4B083318607047014600208B4A083231
:1046D000106820F0030008431060704787480830D6
:1046E000006800F00C00704701460020834A083241
:1046F000106820F0F0000843106070470146002069
:104700007E4A0832106820F4E05008431060704779
:1047100001460020794A0832106820F4604040EADF
:10472000C10010607047F0B500210022002402256E
:1047300000260223714F08373F6807F00C0121B1B2
:10474000042905D0082937D105E0724F076036E00B
:10475000714F076033E0694F3F1D3F68C7F38056D4
:10476000664F3F1D3F6807F03F036EB16A4FB7FBCE
:10477000F3F7DFF888C10CF1040CDCF800C0CCF3CF
:10478000881C07FB0CF40CE0624FB7FBF3F7DFF873
:104790006CC10CF1040CDCF800C0CCF3881C07FBE6
:1047A0000CF4564F3F1D3F68C7F301477F1C7D0047
:1047B000B4FBF5F7076002E0564F076000BF00BF8B
:1047C0004E4F08373F6807F0F0010909534F7A5CF4
:1047D0000768D7404760494F08373F6807F4E05102
:1047E000890A4E4F7A5C4768D7408760434F083745
:1047F0003F6807F46041490B484F7A5C4768D740EF
:10480000C760F0BD002100F44072B2F5407F0AD1CC
:104810003A4A0832116821F4F811414A0240114322
:10482000364A08321160354A70321268C0F30B0301
:104830001A43324B70331A60704735494439086067
:1048400070473349403908607047364908607047FF
:1048500001460020294A8C32106820F01F004A1EB1
:104860001043264A8C321060704701460020234ACC
:104870008C32106820F4F8504A1E40EA02201F4A89
:104880008C3210607047014600201C4A8C32106840
:1048900020F4401008431060704701460020174A7A
:1048A0008C32106820F440000843106070470146C5
:1048B0000020124A8C32106820F440300843106007
:1048C000704719490860704739B10C4A3032126894
:1048D00002430A4B30331A6006E0084A303212684D
:1048E0008243064B30331A607047F9B1034A3432C1
:1048F00012680243014B34331A601CE00038024056
:10490000FFFFF6EA1030002400300020000047428C
:10491000800E47420024F40000127A007400002048
:10492000FFFCFF0F5C014742E01147428F4A1268CB
:1049300082438E4B1A60704739B18C4A121D12683F
:1049400002438A4B1B1D1A6006E0884A121D12683A
:104950008243864B1B1D1A60704739B1834A0C3263
:1049600012680243814B0C331A6006E07F4A0C3216
:10497000126882437D4B0C331A60704739B17B4A11
:10498000103212680243794B10331A6006E0774AFE
:10499000103212688243754B10331A60704739B178
:1049A000724A243A12680243704B243B1A6006E0B4
:1049B0006E4A243A126882436C4B243B1A6070475B
:1049C00039B16A4A203A12680243684B203B1A60A8
:1049D00006E0664A203A12688243644B203B1A6024
:1049E000704739B1614A1C3A126802435F4B1C3B65
:1049F0001A6006E05D4A1C3A126882435B4B1C3B1E
:104A00001A60704739B1594A143A12680243574B39
:104A1000143B1A6006E0554A143A12688243534B1D
:104A2000143B1A60704739B1504A103A1268024379
:104A30004E4B103B1A6006E04C4A103A1268824313
:104A40004A4B103B1A60704739B1484A1C32126811
:104A50000243464B1C331A6006E0444A1C3212687B
:104A60008243424B1C331A60704739B13F4A2032AF
:104A7000126802433D4B20331A6006E03B4A203265
:104A800012688243394B20331A60704739B1374A74
:104A9000243212680243354B24331A6006E0334A4D
:104AA000243212688243314B24331A60704739B183
:104AB0002E4A2C32126802432C4B2C331A6006E02B
:104AC0002A4A2C3212688243284B2C331A607047D2
:104AD00039B1264A303212680243244B30331A600F
:104AE00006E0224A303212688243204B30331A608B
:104AF0007047012808D11D493C31096841F008017F
:104B00001A4A3C32116007E018493C31096821F02B
:104B10000801164A3C321160704739B1134A273AEE
:104B200012780243114B273B1A7006E00F4A273ACE
:104B3000127882430D4B273B1A7070470B48403068
:104B4000006840F0807009494031086070470146B4
:104B50000020064A283A12680A400AB1012000E003
:104B600000207047014926390870704734380240E8
:104B7000704700000FB4044910B503AA029800F072
:104B800053F910BC5DF814FB2400002070B50C46EE
:104B90000546012A05D02878800600D5EA69002359
:104BA00002E0012305E05B1C934202D2E05C002896
:104BB000F9D1A869E618C01AA861286A18442862C1
:104BC0002846AFF3008004E0D5E9012114F8010B79
:104BD0009047B442F8D32846AFF3008070BD000080
:104BE0002DE9F0410646002410687529314615A5C7
:104BF00010D0AFF30080002802DA404212A507E08F
:104C000031688A0701D511A502E0490704D510A52E
:104C1000012401E0AFF3008000210A2306F12407FC
:104C200007E0B0FBF3F203FB12003030785410467B
:104C3000491C0028F5D123462A463046BDE8F041FC
:104C400000F082B8000000002D0000002B000000E2
:104C50002000000070B504460D4621461068AFF3F1
:104C600000802188090502D50F4A7A4402E00E4AE5
:104C70007A440E32002104F1240305E000F00F060F
:104C80000009965D5E54491C0028F7D12078002366
:104C9000000704D5702D02D009B10223113220463D
:104CA000BDE8704000F050B8800300002DE9F041ED
:104CB0000F4604460020DFF88480F8442062204636
:104CC000E168884790B3252806D0D4E901219047B0
:104CD000206A401C2062F2E700252046E1688847F0
:104CE0002028064608DB312E06D208EB060010F815
:104CF000200C08B10543F0E7A80701D525F004050D
:104D0000A6B1A6F14100192802D8203645F4006565
:104D10003A46314620462560FBF770FA48B1012833
:104D200005D0FF1D27F007070837C8E703E03F1D40
:104D3000C5E73046C9E7206ABDE8F08158030000A6
:104D400070477047704770472DE9F0470D46994608
:104D50009246044600F124080168880604D5E069FB
:104D600021F01001216000E00120A84201DD471B75
:104D700000E00027A1697A1902EB0900081AA06176
:104D80002078C00602D42046AFF30080002608E059
:104D9000D4E901211AF806009047206A401C761CCD
:104DA00020624E45F4DB2078C0060AD52046AFF3DA
:104DB000008006E0D4E9012130209047206A401CA1
:104DC0002062381EA7F10107F4DC07E0D4E90121D5
:104DD00018F805009047206A401C2062281EA5F1A3
:104DE0000105F3DC2046AFF300802078000602D5F1
:104DF0000220BDE8F0870120FBE710B5436913B13D
:104E0000AFF3008001E0FFF7C1FE012010BD127872
:104E100000F124010A7000224A700122EDE71168B6
:104E20004FF0FF32E9E70000074B70B50D467B44B9
:104E300000F011F80446284600F020F810B14FF0B9
:104E4000FF3070BD204670BDEDBAFFFF01694A1CFE
:104E500002610878704700B58FB0CDE901310021BB
:104E6000059105497944CDE9031011466846FFF7DD
:104E70001DFF0FB000BD0000E5FFFFFF007B00F04D
:104E800080007047754600F029F8AE460500694677
:104E9000534620F00700854618B020B5FBF7E4F92B
:104EA000BDE820404FF000064FF000074FF000082B
:104EB0004FF0000B21F00701AC46ACE8C009ACE8AC
:104EC000C009ACE8C009ACE8C0098D46704704468B
:104ED000AFF300802046FBF7ABF9000000487047B5
:104EE000CC1100204FF04070E1EE100A7047000036
:104EF00001000200010003000100020001000400A3
:104F00000100020001000300010002000100050091
:104F10000100020001000300010002000100040082
:104F20000100020001000300010002000100060070
:104F30000100020001000300010002000100040062
:104F40000100020001000300010002000100050051
:104F50000100020001000300010002000100040042
:104F6000010002000100030001000200010007002F
:104F70000100020001000300010002000100040022
:104F80000100020001000300010002000100050011
:104F90000100020001000300010002000100040002
:104FA00001000200010003000100020001000600F0
:104FB00001000200010003000100020001000400E2
:104FC00001000200010003000100020001000500D1
:104FD00001000200010003000100020001000400C2
:104FE0000100020001000300010002000100303155
:104FF0003233343536373839414243444546403000
:1050000058003031323334353637383961626364B1
:1050100065664030780004000008000000000000D1
:1050200000020001000010004850000800000020AD
:1050300084000000C4010008CC5000088400002057
:10504000AC170000E00100080000000000000000B4
:10505000007A030A000000000000000001020304BF
:105060000607080901000000000000000000000021
:105070000000000000000000000000000000000030
:105080000000000000000000000000000000000020
:105090000000000000000000000000000000000010
:1050A0000000000000000000000000000000000000
:1050B00000000000000000000000000000000000F0
:0C50C000010203040102030406070809B2
:040000050800018965
:00000001FF
